:020000040800F2
:10000000C00F00241904000879A000086F9C0008A4
:1000100075A00008E52900083DC1000800000000A7
:10002000000000000000000000000000C5AA000859
:10003000193800080000000045A40008DDAA0008E7
:1000400037040008370400083704000837040008A4
:100050003704000837040008370400083704000894
:100060003704000837040008370400089D320008F0
:100070003704000837040008370400083704000874
:100080003704000837040008370400084538000822
:10009000653800085538000875380008370400082E
:1000A0003704000837040008370400083704000844
:1000B0003704000837040008370400083704000834
:1000C0003704000837040008370400083704000824
:1000D0003704000837040008370400083704000814
:1000E0003704000837040008000000003704000847
:1000F00037040008370400083704000837040008F4
:1001000037040008370400083704000837040008E3
:1001100037040008ADAD0008A5AC0008B5AC000878
:1001200037040008370400083704000837040008C3
:1001300037040008370400083704000837040008B3
:1001400000000000000000000000000000000000AF
:100150003704000837040008370400083704000893
:100160003704000837040008370400083704000883
:1001700037040008370400083704000800000000B6
:100180003704000837040008370400083704000863
:100190003704000837040008370400083704000853
:1001A0003704000837040008370400080000000086
:1001B0003704000837040008370400083704000833
:1001C00037040008370400080000000000000000A9
:1001D00000000000000000003704000800000000DC
:1001E000000000000000000000000000000000000F
:1001F0000000000000000000370400083704000879
:100200003704000837040008000000003704000825
:1002100037040008370400083704000837040008D2
:100220003704000800000000370400080000000048
:1002300037040008370400080000000037040008F5
:1002400037040008370400083704000837040008A2
:100250003704000837040008370400083704000892
:100260003704000837040008370400083704000882
:1002700037040008370400083704000800000000B5
:100280003704000837040008370400083704000862
:1002900000000000370400083704000800000000D8
:1002A0000000000037040008370400083704000885
:1002B0002DC10008370400083704000885380008FD
:1002C00095380008370400083704000800F002F8E9
:1002D00000F092F80AA090E8000C82448344AAF14E
:1002E0000107DA4501D100F087F8AFF2090EBAE84C
:1002F0000F0013F0010F18BFFB1A43F0010318475A
:10030000C0C80000E0C80000103A24BF78C878C117
:10031000FAD8520724BF30C830C144BF04680C600B
:10032000704700000023002400250026103A28BF53
:1003300078C1FBD8520728BF30C148BF0B60704757
:100340006E2900F01D82702900F05F8366290CF091
:10035000D98265290CF0D68267290CF0D3826129F5
:100360000CF0D28203681B0A28BF41F08001692982
:1003700000F0CA81642900F0C781752900F0C481AA
:100380006F2900F0EC82782900F02B83E92900F036
:100390008782E42900F08482F52900F08182EF2928
:1003A00000F0E982F82900F02A830368DB0928BFFE
:1003B00041F08001632901F08B80732901F0908066
:1003C000E32901F09B80F32901F0A0800020704711
:1003D0001FB50CF08FFA01F00FF904000020002186
:1003E0000CF06AFA401C6060002000210CF04EFA0C
:1003F000E0601FBD10B510BD01F0D0F81146FFF749
:10040000E7FF0CF0EBF901F029FC03B4FFF7F2FF72
:1004100003BC01F061FC00000A4880470A4880479D
:100420000A480047FEE7FEE7FEE7FEE7FEE7FEE7D5
:10043000FEE7FEE7FEE7FEE705480649064A074BEA
:10044000704700002138000899AB0008CD02000871
:10045000C0090024C00F0024C00B0024C00B0024DE
:1004600053EA020C00F069802DE9F04B4FF00006D2
:10047000002B1FBFB3FA83F503FA05F424FA05F63F
:100480005E4012BF1643B2FA82F502FA05F4C5F1D6
:1004900020051EBF22FA05FC44EA0C04203556EA6A
:1004A000044C4FEA144418BF641C4FF000084FF08E
:1004B0000009904271EB030C39D3002919BFB1FA3E
:1004C00081F701FA07F6B0FA80F700FA07F6C7F1EC
:1004D00020071EBF20FA07FC46EA0C062037B6FBB1
:1004E000F4FCA7EB0507103F07F01F0BCBF120062C
:1004F0000CFA0BFB2CFA06F644BFB3460026202F5D
:10050000A4BF5E464FF0000B5BEA060C08BF4FF03D
:10051000010B19EB0B09ABFB027C48EB0608C01B77
:1005200006FB02CC0BFB03CC71EB0C01C1E70B46C5
:10053000024641464846BDE8F08B13B54FF0000037
:100540004FF00001AFF30080BDE81C407047000091
:100550001CB50C46064B7B4469460090204600F0D3
:1005600028F904460020694600F036F920461CBDF3
:100570007F02000010B5203AC0F00B80B1E818509F
:10058000203AA0E81850B1E81850A0E81850BFF47D
:10059000F5AF5FEA027C24BFB1E81850A0E818501C
:1005A00044BF18C918C0BDE810405FEA827C24BF70
:1005B00051F8043B40F8043B08BF7047D20728BFFE
:1005C00031F8023B48BF11F8012B28BF20F8023B4D
:1005D00048BF00F8012B70474FF0000200B51346EA
:1005E00094469646203922BFA0E80C50A0E80C5053
:1005F000B1F12001BFF4F7AF090728BFA0E80C5004
:1006000048BF0CC05DF804EB890028BF40F8042BFC
:1006100008BF704748BF20F8022B11F0804F18BF69
:1006200000F8012B704770477047704710B500F015
:100630000DFB006810BD10B5044600F007FB046018
:1006400010BD70B5044685690068C10601D5302625
:1006500000E02026C00707D070BDD4E90121304654
:100660009047206A401C20626D1EF6D570BD70B5A3
:10067000044685690078C00707D170BDD4E901211F
:1006800020209047206A401C20626D1EF6D570BD68
:1006900009684A0501D540B27047C905FCD500B2CA
:1006A000704709684A0501D5C0B27047C905FCD535
:1006B00080B2704770B50C460546012A05D02878EF
:1006C000800600D5EA69002302E0012305E05B1CF7
:1006D000934202D2E05C0028F9D1A869E618C01A5A
:1006E000A861286A184428622846FFF7AAFF04E098
:1006F000D5E9012114F8010B9047B442F8D32846FC
:10070000FFF7B5FF70BD00002DE9F041064600245B
:1007100010687529314616A510D0FFF7B9FF0028DB
:1007200002DA404213A507E031688A0701D512A515
:1007300002E0490704D511A5012401E0FFF7B1FF4C
:1007400000210A2206F1240709E0B0FBF2FCB0FB0D
:10075000F2F302FB1C00303078541846491C002884
:10076000F3D123462A463046BDE8F04100F0C0BA36
:10077000000000002D0000002B0000002000000001
:1007800011680268006A530501D508700AE0D305B4
:1007900001D5088006E0130603D5C217C1E900029F
:1007A00000E008600120704701694A1C0261087876
:1007B000704700B58FB0CDE90131002105910549A1
:1007C0007944CDE903101146684600F029F90FB0CD
:1007D00000BD0000E5FFFFFF0A6802F8010B0A6098
:1007E000704700002DE9FF5F15468A460446DFF892
:1007F000AC80F8440027D8E900103E46CDE900104F
:1008000010E03AF816106A4602A800F0A3FE411C58
:1008100007D02178890603D5E269391891420DD8AD
:100820000744761C2078800602D5E069B84205DDD1
:10083000AE42E6DB3AF816000028E2D1A069C01B00
:10084000A0612046FFF7FDFED8E90010CDE90010B9
:10085000002017E03AF818106A4602A800F07AFE65
:10086000B0F1FF3F81460BD000250DF1080B05E0EC
:10087000D4E901211BF8050090476D1C4D45F7D3C5
:1008800008F10100B0428046E4DB206A384420626F
:100890002046FFF7ECFEBDE8FF9F0000CEC200003F
:1008A0002DE9F0418046D21D22F007020025D2E951
:1008B0000002F52915A614D0011E72F1000106DA16
:1008C0000023D0EB030063EB020211A608E0D8F886
:1008D00000108B0701D50FA602E0490701D50EA62F
:1008E00001251146002408F1240704E000F0B2F9C4
:1008F00030323A55641C50EA0102F7D12B46324699
:1009000021464046BDE8F04100F0F2B90000000089
:100910002D0000002B0000002000000030B400215A
:1009200000F1240408E002F00705D208303542EA5D
:100930004372DB086554491C52EA0305F3D104688D
:10094000002310A2250707D5A40600D421B1C4694D
:1009500001230DA2641EC46130BC00F0C9B910B5FA
:10096000044621461068FFF79CFE02462046BDE87B
:1009700010400023D2E7D21D22F00701D1E9002365
:10098000CCE700000000000030000000F0B40D468D
:100990000188090502D5214C7C4402E01F4C7C44AF
:1009A0000E34002100F1240608E002F00F071209BE
:1009B000E75D42EA03721B097754491C52EA0307B8
:1009C000F3D102780023120704D5702D06D009B1A7
:1009D000022311342246F0BC00F08AB901231034FE
:1009E000F8E770B504460D4621461068FFF759FE3A
:1009F000024629462046BDE870400023C6E7D21DC6
:100A000022F00703D3E90023C0E70368126843F02C
:100A1000200303600823C3610023B7E730C100004F
:100A20002DE9F05F894604464FF0000ADFF874B103
:100A3000FB44C0F820A02046E1688847002874D015
:100A4000252806D0D4E901219047206A401C206265
:100A5000F1E700265F462046E168884720280546E2
:100A600007DB312D05D2781910F8200C08B10643A8
:100A7000F1E7B00701D526F00406C4F81CA0002752
:100A8000C4F818A02A2D09D028460BF031FE38B33F
:100A900004EB8708303DC8F8185019E059F8041BDA
:100AA000204604EB87029161E1688847012F0546E3
:100AB00018D1E069002820DA26F020061DE0D8F8D9
:100AC000180000EB800005EB40003038C8F8180033
:100AD0002046E168884705460BF00AFE0028EED163
:100AE000012F0AD02E2D08D12046E16888477F1CAF
:100AF0000546022F46F02006C4DBA069002803DA71
:100B0000404246F00106A061F00701D026F0100631
:100B10006C2D0BD0682D09D04C2D39D06A2D35D0D5
:100B2000742D35D07A2D33D016E038E0E1682F46A9
:100B300020468847B842054609D16C2F26D04FF48D
:100B40008060E168064320468847054604E06C2F34
:100B50001AD04FF4807006430DB3A5F14100192857
:100B600002D8203546F400664A46294620462660CB
:100B70004E46FFF7E5FB80B101280BD0F61D26F0AD
:100B8000070000F1080956E74020E4E78020D8E795
:100B90000020D6E706F104094DE7284652E7206A0F
:100BA000BDE8F09FC0C000000FB4002300B589B0BD
:100BB0000CA900910B99CB60214B7B440693214BF0
:100BC0007B44079304236FF00042CDE901321E4AB3
:100BD0007A446B460892024600200BF0F7FE09B0FB
:100BE0005DF814FB70B506464FF0FF3015460C4615
:100BF000324686B00091CDE901016946002004909B
:100C000004A8FFF7D1FF02460498211825B108B1C6
:100C1000084600E020462860049800280DD0002AED
:100C200002DD0098884208D03246081B69460094CD
:100C3000CDE9010404A8FFF7B7FF06B070BD0000BE
:100C4000570900006F0900000B01000000487047C1
:100C50006009002430B5B0F10A024FEA900E71F13C
:100C600000034EEA817EB0EB0E0061EB91014FEA8A
:100C7000101E4EEA017E10EB0E0041EB11114FEAFF
:100C8000102E4EEA016E10EB0E0041EB11214FEADF
:100C9000104E4EEA014E10EB0E0041EB1141401890
:100CA00041F100014FEAD00040EA41704FEAD10122
:100CB00010EB80054FEA810444EA907444EB010490
:100CC0006D1944EB0404521BA3414FF0000348BFCD
:100CD0000A3200D530BD401C41F1000130BD10B5D5
:100CE000044600F081FC0068005D00F0010010BDCA
:100CF0002DE9F0470D4699469246044600F1240836
:100D00000168880604D5E06921F01001216000E047
:100D10000120A84201DD471B00E00027A1697A19E4
:100D200002EB0900081AA0612078C00602D4204610
:100D3000FFF787FC002608E0D4E901211AF8060035
:100D40009047206A401C761C20624E45F4DB2078D8
:100D5000C0060AD52046FFF774FC06E0D4E901215D
:100D600030209047206A401C2062381EA7F10107FE
:100D7000F4DC07E0D4E9012118F805009047206A67
:100D8000401C2062281EA5F10105F3DC2046FFF778
:100D90006EFC2078000602D50220BDE8F087012015
:100DA000FBE770472DE9FF4F0C461E464FF0FF371B
:100DB0008BB0D2E90001DDF860800A908A46C1F369
:100DC0000A5505B93D46002108464FF00000BAF12A
:100DD000000F00F4400005DA00EB80004FF4400102
:100DE00001EA50004FEA9059B9F1010F00DDB94610
:100DF0000A9850EA4A000ED044F61050A5F2FF358A
:100E000045432F14B8F1000F1ED07542291E1EDD78
:100E1000C9F100021CE0B8F1010F4FF0000001D051
:100E2000302103E0F24305E02154401CB042FBDBDB
:100E300030460022002121540B99C1F80880C1E9F5
:100E400000200FB0BDE8F08FBD1B6D1CDEE74A46E9
:100E500000DA694206A800F08FFE06AB93E80700AF
:100E600003AB83E8070050460A9901F087F98DE843
:100E70000700A0F500501F3800900398002D0ADDF0
:100E800042F21F014A460844002303A90390684622
:100E900001F032FC09E0A0F500504A461F3800235B
:100EA00003A90390684601F051FC8DE80700000497
:100EB000000C03D04FF0FF30410800E01046B8F1BD
:100EC000000F03D00022009215461EE0751E05D4C7
:100ED000FFF7C0FE303262556D1EF9D5B3460122D0
:100EE000084302D000227F1C04E02078302801D182
:100EF00000227F1E002A099784D01DE0112D07DAF9
:100F0000FFF7A8FE303262556D1C50EA0102F5D1A0
:100F1000084302D00098C8B10EE00021681E05E029
:100F2000235C625C63542254401E491C8142F7DBFF
:100F3000AB46A81B401E0990002004F80B000B983C
:100F4000099AC0F80880C0E9002B7AE711264FF013
:100F5000000857E72DE9F04F88460446D21D22F0DD
:100F6000070191B0D1E90001CDE90A010BF0E8F8E1
:100F700002460B98C00F01D02D2007E020688107A2
:100F800001D52B2002E0202101EAC000032A0990AC
:100F900001D0072A05DB03464146204600F030FB1E
:100FA0000BE12078800601D5E06900E00620B8F169
:100FB000650F814606D0B8F1660F18D0B8F1670FFB
:100FC00070D131E00020B9F1110F009001DB112345
:100FD00001E009F101030AAA01A90CA8FFF7E2FE4A
:100FE000DDE90C70002609F10105834647E0012088
:100FF0004B4600904FF000470AAA01A90CA8FFF742
:10100000D1FEDDE90DB00C995D46002610B909F15D
:1010100001000D18B9EB050003D4C0F1FF3609F14A
:101020000105A5EB09002BE0B9F1010F01DA4FF042
:1010300001090020B9F1110F0090484601DD11238C
:1010400000E003460AAA01A90CA8FFF7ABFEDDE900
:101050000C704D4600268346207800070AD4AB4525
:1010600000DA5D4601A8012D04DD411911F8011CCB
:10107000302907D04F4502DA17F1040F04DA0120B6
:1010800082460FE06D1EEEE7002F02DCED1B3E44B2
:1010900003E0781CA84200DD7D1CB81B00F1010AAA
:1010A0004FF000472078000703D4AA4501DB4FF03A
:1010B000FF3A0021B7F1004F0DF143088DF84310BE
:1010C00024D002202B23002F01DA7F422D230A2176
:1010D000021EA0F1010000DC5FB197FBF1FC97FB61
:1010E000F1F201FB1C7C17460CF1300C08F801CD25
:1010F000EEE7A8F1010003702188090501D545211B
:1011000000E06521A0F1010800F8011C09980FA971
:10111000A1EB0807FF1D00B10120411901EBEA70A6
:10112000A1693844081A401EA0612078C00602D484
:101130002046FFF786FA099828B1D4E901219047A3
:10114000206A401C20622078C00622D52046FFF786
:1011500078FA1EE0002E04DBB34502DD01A8805DB5
:1011600000E03020D4E901219047206A401C206231
:10117000761CAAF101005FEA000A0AD100F03CFAED
:10118000C0680168405CD4E901219047206A401C96
:101190002062281EA5F10105DCDC07E0D4E901216D
:1011A00018F8010B9047206A401C2062381EA7F1F6
:1011B0000107F3DC2046FFF75AFA032011B041E69D
:1011C0002DE9F04F04460D46D21D22F0070089B0EC
:1011D000D0E90097484639460AF0B2FF0246F80FB8
:1011E00001D02D2307E02068810701D52B2302E0E1
:1011F000202101EAC0038DF820300BB1012000E06E
:101200000020032A824601D0072A04DB2946204613
:1012100000F0F6F93FE12078800601D40D2500E0CA
:10122000E569C7F30A560D2D49DA00214FEA175B2D
:1012300008464FF00000002F00F4400007DA00EBF2
:1012400080004FF4400100EBD07001EA600081158E
:10125000012901DD4FF0FF3100224FEA850CBCF17E
:10126000180F06D31346ACF118004FF08052C2405D
:1012700003E04FF4801323FA0CF30CF10C0CBCF1D7
:10128000200F04D3ACF1200C09FA0CF001E007FAAE
:101290000CF000294FF0004801DD18B90FE00ED125
:1012A00040450CD319EB02095F4121B9404502D1F9
:1012B0009F4329EA0209BBEB175F00D0761C208808
:1012C000000502D57B48784402E07A487844193812
:1012D00008AA302302F80A30037C0AF10101002E2B
:1012E0000AF1020A53546A4602DC4FF0300101E071
:1012F0004FF031014FF001088DF8001002D0A6F236
:10130000FF3603E059EA470100D06B4E002D02DCA6
:101310002178090704D54FF002082E218DF801101D
:10132000C44600210BE0C7F303433F01C35C491CE3
:101330006D1E02F80830052908F1010801DA002DB8
:10134000F1DC00210CE000EB1973491C1B786D1EC9
:10135000082902F808304FEA091908F1010801DAF2
:10136000002DF0DC21688B0602D516E0A8F10108FB
:10137000E04505DD02EB080313F8013C302BF5D006
:10138000B8F1000F09DD02EB080313F8013C2E2B26
:1013900003D1090701D4A8F10108002D05DD3E2184
:1013A00002F808106D1E08F10108407C002E02F8BA
:1013B000080008F1010804DA2D20764202F808003E
:1013C00002E02B2002F808000A214FF47A708642CE
:1013D00008F101080BDB96FBF0F3303302F808301C
:1013E00096FBF0F308F1010800FB136601E0642EA0
:1013F0000CDB642096FBF0F3303302F8083096FBE8
:10140000F0F308F1010800FB136601E00A2E06DB89
:1014100096FBF1F0303002F8080008F1010896FB65
:10142000F1F001FB1060303002F80800A16908F10A
:10143000010808EB050202EB0A00081AA0612078F7
:10144000C00602D42046FFF7FCF8216A08AE01EB83
:101450000A00206204E0D4E9012116F8010B90474C
:10146000BAF1010AF7D22078C00602D52046FFF76C
:10147000E8F86E4609E016F8010B3E280FD0D4E9D3
:1014800001219047206A401C2062B8F10108F2D285
:101490002046FFF7ECF809B00320BDE8F08F206A82
:1014A0002844206203E0D4E90121302090476D1EDA
:1014B000EBD3F8E74EB8000002FCFFFF10B543691C
:1014C00013B1AFF3008001E0FFF7F4F8012010BD85
:1014D000127800F124010A7000224A700122EDE71F
:1014E00011684FF0FF32E9E710B5436913B1AFF36C
:1014F000008001E0FFF776F9012010BD128800F1AD
:10150000240182840022C2840122EDE711684FF099
:10151000FF32E9E7426842B1016811F8013B23B1AB
:10152000521EC0E90012184670470121C160881E92
:10153000704742685AB1C368016843B983688B42F7
:1015400005D0491E521CC0E90012002070474FF020
:10155000FF30704770B516460C46054600F044F85B
:10156000036893F80101012806D0FF2C0FD8185DFD
:1015700068B101202C7070BDD3F8070132462146B6
:1015800003F2071303442846BDE8704018474FF0A4
:10159000FF3070BD00487047600900247546FFF7B2
:1015A000F9FFAE4605006946534620F00700854620
:1015B00018B020B5FEF740FFBDE820404FF0000610
:1015C0004FF000074FF000084FF0000B21F007012B
:1015D000AC46ACE8C009ACE8C009ACE8C009ACE86E
:1015E000C0098D467047000010B500F005F8001DD9
:1015F00010BD00BFC5B2000000487047800900243C
:101600002DE9F0411F46044603260168072A01F42C
:10161000006004DB08B116A505E016A503E008B1DB
:1016200015A500E015A521F010002060A069C01EDE
:10163000A0610FB1401EA0612046FFF702F84FB134
:10164000D4E9012138469047206A401C2062C01C22
:10165000206206E0206AFAE7D4E9012115F8010BBF
:101660009047761EF8D22046FFF701F8BDE8F081DA
:101670004E414E006E616E00494E4600696E660036
:101680002DE9FF4F06468BB00878FF2806D0491C8D
:101690002D2805D000244FF0000908E000200CE0C0
:1016A0000124F8E709EB8903491C00EB430908789A
:1016B000FF28F7D114B1C9F1000081461078002548
:1016C0002C46AA4629462D2801D02B2804D1521C8D
:1016D0002D2813D0002082468B461078FF280FD08B
:1016E0004FF0000C0A21521CA5FB017804FB01817C
:1016F00005FB0C11C5194BEB0104EEE70120EAE7ED
:10170000002108464FF00000BAF1000F02D000EBB4
:1017100080004008C0F38157012F01DD4FF0FF37F3
:101720000E9955EA040009EB01080BD04FF00209AD
:1017300018F5FA7F16DA4FEACA70002F706008DDDC
:10174000012007E04FEACA70C6E900B00FB0BDE85B
:10175000F08F00203060FFF779FAC0F80090182170
:10176000084616E0B8F5FA7F18DD002F02DAF748D0
:10177000784401E0F6487844D0E90010C6E900104A
:1017800040EACA707060FFF761FAC0F80090142157
:1017900008460FB0BDE8F04F0BF0B1B80021084685
:1017A0004FF00000B8F10001099002DAC7F1000221
:1017B00000E03A4601DAC8F1000106A800F0DCF9C1
:1017C00006AB93E8070003AB83E8070044F23E0052
:1017D0005BEA04010090584604D144F21E012C46F5
:1017E0005D460091210C0904014306D100992404AF
:1017F00044EA15442D041039009104F07F4101435F
:1018000006D10099240244EA15642D02083900919A
:1018100004F07041014306D10099240144EA157493
:101820002D01091F009104F04041014306D10099A8
:10183000A40044EA9574AD00891E009104F00041B3
:10184000084304D100986D196441401E00904FF088
:1018500001033A466846B8F1000FCDE9014503A9F6
:1018600002DD00F088FF01E000F05BFFBAF1000F3D
:1018700004460D4601D084F00044002108464FF094
:101880000000099940F2FF77484010F00C0F07D193
:1018900024F00040284303D0C4F30A50B84212D1C8
:1018A000FFF7D4F9C0F80090C4F30A50B8420AD147
:1018B000A8487844D0E90010C6E9001004F00041BF
:1018C0000843706042E7C6E900543FE72DE9FF4F47
:1018D0001F464FF0000A4FF0FF38454691B0D7E958
:1018E0000146CDF83CA0FFF787FEC0680168405C68
:1018F0001090B96912986D1C8847396A81468847EB
:101900000028F6D1B9F1FF3F0AD0002E24F4D064AC
:1019100011DDB9F12B0F08D0B9F12D0F0BD102E079
:10192000404615B013E744F48064B96912986D1C01
:101930008847761E8146600504A901D52D2000E068
:101940002B20002E01F1010B0DF130088DF8100055
:101950003FDDB9F1690F08D0B9F1490F05D0B9F1F0
:101960006E0F02D0B9F14E0F1CD13B4601A8009575
:1019700080E85002DDE912126FF002000BF02AF845
:10198000C11CCED10EE0B96912986D1C8847814602
:101990001398761E44F4007405600F98401C002EC6
:1019A0000F9016DDB9F1300FEDD0B9F1780F02D0FC
:1019B000B9F1580F0DD10F9801280AD13B46CDE956
:1019C0000054DDE91212001F02960BF001F8C11C51
:1019D000A7D1109989453ED144F0800406E01399BF
:1019E000681CAAF1010A44F400740860B9696D1C0E
:1019F0001298761E884730288146F0D02BE0109947
:101A0000894505D1200603D4761E44F0800418E0F1
:101A100048460AF06DFE08B3761E0DF123018B4592
:101A200044F4007408D2A9F130000BF8010B200631
:101A300007D5AAF1010003E0200602D40AF1010053
:101A40008246A00502D51399681C0860B9691298EE
:101A50006D1C88478146002ED1DC53E0002E51DDFD
:101A6000B9F1650F02D0B9F1450F4BD1A00549D5A9
:101A7000B9696D1C1298761E24F440748847002EB4
:101A800081460CDD2B2804D0B9F12D0F07D144F489
:101A90008074B96912986D1C8847761E8146E005EE
:101AA00001D52D2100E02B2108F8011BCDF8008085
:101AB00021E0761E0DF13901884544F400740CD202
:101AC000A9F1300010F0FF0088F8000002D1009961
:101AD000884509D908F1010806E0E00501D51E484E
:101AE00001E042F20F708246B96912986D1C884776
:101AF000814613980560002E04DD48460AF0F8FD83
:101B00000028D6D1F96912988847FF2053468BF8F0
:101B1000000088F8000000200A900B9004AA0CA98D
:101B20000AA8FFF7ADFDA00502D46FF00100F8E6AA
:101B300014F0240F12D0E0071CD13868DDE90A1236
:101B4000031D3B600068C0E9001213E074B400009C
:101B500066B400002AB30000F1D8FFFF0AA9684666
:101B60000AF05EFDE00705D13868009A011D396072
:101B7000006802602846D4E62DE9F0478146164603
:101B80008AB0354878440DC88DE80D003248784455
:101B9000801C03AC0DC884E80D0041F69B3008445E
:101BA000372190FBF1F290FBF1F5A5F1800501FBE7
:101BB00012041B3C02D56442012000E00020DFF843
:101BC00098A080460027FA44AAF1BE0A0EE0E0077A
:101BD0000AD03246684607EB470101230AEB810130
:101BE00000F0B4FD8DE8070064107F1C002CEED1DE
:101BF000194F7F44AE3F19E0E80715D007EB0410FA
:101C00000DF1180A90E80E008AE80E00C068F04254
:101C100001D1981908903246012306A903A800F0C3
:101C200095FD03AB83E807006D10641C002DE3D124
:101C30004FF0010332466946B8F1000F03A802D005
:101C400000F05AFD01E000F081FDC9E90001C9F88A
:101C500008200AB0BDE8F08720B0000010B50446A7
:101C6000AFF300802046BDE81040FEF7CEBB000079
:101C70004FF0013C50F8042B51F8043B9A4215D127
:101C8000A2EB0C03934313EACC130BD150F8042BB3
:101C900051F8043B9A4209D1A2EB0C03934313EA97
:101CA000CC13E7D04FF00000704700BFD01A01BA44
:101CB000B1FA81F101F0180122FA01F0CB40C1F133
:101CC0002001DBB2C0B2C01A2CFA01F3D11A914341
:101CD00011EAC311E6D1704701491820ABBEFEE7F7
:101CE000260002002DE9FF4F1F464FF03C0987B048
:101CF0004FF00042DDE9141001F10108DDF858A0B1
:101D000002EA4050039000200590834605460446B1
:101D10000490B969461E08988847AAF1010A029002
:101D2000BAF1000F3BDD02982E2815D0102100F0EB
:101D300017FA00282EDB4FF0010B0599014317D04D
:101D4000B9F1000F0BDB4A46C11700F0F6F9054365
:101D50000C43A9F1040905E0012004900BE008B14F
:101D600045F0010501200590049820B9361D02E0D8
:101D7000049800B1361FB969089808F1010888472E
:101D8000BBF1000FAAF1010A0290C9D00999C1F86C
:101D90000080C5E70298702808D0502806D0F9695D
:101DA00008988847BBF1000F14D04FE00020029044
:101DB0000120BBF1000F049009D0B969089808F11F
:101DC00001088847AAF10109B9F1000F07DCF96998
:101DD000089888476FF001000BB0BDE8F08F2B2802
:101DE00004D02D280CD14FF0FF300490B969089829
:101DF00008F101088847A9F10109B9F1000FE6DDF2
:101E0000411CE4D00A2100F0ABF90028DFDB029985
:101E100008F1010801EB810100EB41000290B96972
:101E2000089888470A2100F09BF9099AA9F101094D
:101E3000B9F1000FC2F8008001DD0028E7DAF96986
:101E4000089888470499029800FB016655EA040047
:101E500004D004F04041090002D006E0039898E065
:101E6000A40044EA9574AD00B61E04F000410800D9
:101E700002D16D196441761E159810F0240F03D01D
:101E80004FF00B095C4803E04FF028096FF07D002C
:101E90008246564507DAAAEB06018944B9F1410F9B
:101EA00001DD4FF0410901200021A9F1010200F0FC
:101EB00044F9024628400B462140084301D0012145
:101EC00000E00021501E029143F1FF3128402140E3
:101ED000084301D0012000E000200299834651EA26
:101EE0000B014FD0002108464FF00000039900F489
:101EF000400039B100EB80004FF4400100EBD0709E
:101F000001EA60008015012802DD4FF0FF3000E09B
:101F100013D0401C36D0029860B3BBF1000F0CD137
:101F20004A460120002100F008F9284021400843DA
:101F300001D0012000E00020E0B101204A4600214C
:101F400000F0FBF8034640190A4661412D1A8C4106
:101F500011D3B9F1400F09DD159810F0240F02D00C
:101F6000AAF1340603E0AAF1170600E0761C00256A
:101F70004FF0004406E05B1E42F1FF3220EA030509
:101F800021EA0204CAF10100B04206DA1B490398B3
:101F900008430190002000900EE0039AC4F3D3217F
:101FA000E80A0A43164940EA44500A433146CDE95B
:101FB000000268460AF040FB159810F0240F0BD081
:101FC0001598C00715D13868DDE90012031D3B6084
:101FD0000068C0E900120CE002A869460AF020FB84
:101FE0001598C00705D13868029A011D396000684C
:101FF00002604046F0E6000002FCFFFF0000F07FB8
:102000000000F03F2DE9FF4F92461D4685B04FF08E
:102010000041DDE9124BDDE914727F1E01EA4B50ED
:10202000414940F0FF4940EA0108002122F0200028
:102030004928049102D04E2828D04CE03BA001262C
:1020400007C88DE80700A9690698641C88477F1EA9
:10205000014606D41DF8060018B121F02001814286
:102060000BD0E96906988847032E34D0082E32D069
:102070006FF0010009B0BDE8F08F761C032E01D08F
:10208000082EE0D1601CCAF80000DCE7A9690698B8
:10209000641C88477F1E2AD420F02000412826D1C6
:1020A000A9690698641C88477F1E20D420F0200070
:1020B0004E281CD1A9690698641C88477F1E48F4E5
:1020C000002849F48009CAF8004001D4282806D025
:1020D000E969069888475FEACB7012D022E0A969C7
:1020E0000698641C88477F1E01D4002803DAE9693A
:1020F00006988847BCE72928F1D1641CCAF800403B
:10210000E9E71BF0240F07D028680499031D2B6012
:102110000068C0E9001805E02868021D2A60006810
:10212000C0F800902046A5E70000F07F494E4649E0
:102130004E495459000000007047B2F120030AD5FF
:10214000C2F1200301FA02F120FA03F300FA02F0CF
:1021500041EA0301704700FA03F14FF000007047B5
:102160003A2800D2303820F02002412A01D3A2F1CF
:102170003700884201D34FF0FF3070475FEA400CD0
:1021800008BF91F0000F4FEA8C234FEAC12243EAC7
:1021900051514FEA1C5018BF00F5F0404FEA300093
:1021A00018BF41F000415FEA6C5C00F02980BCF18F
:1021B000FF3F08BF40F080407047130C06BF120479
:1021C0004FF0100C4FF0000C130E04BF12020CF174
:1021D000080C130F04BF12010CF1040C930F04BF81
:1021E00092000CF1020CD30F04BF52000CF1010C51
:1021F00011464FF00002A0F11F00A0EB0C00704749
:1022000011F0004F08BF704731F000413FF4D5AFE7
:102210000B0C06BF09044FF0100C4FF0000C0B0E16
:1022200004BF09020CF1080C0B0F04BF09010CF1EB
:10223000040C8B0F04BF89000CF1020CCB0F04BF00
:1022400049000CF1010CCCF12003A0EB0C0022FAA8
:1022500003F302FA0CF241EA030100F101007047B6
:1022600020F07F4C80EA030023F07F47ACEB0703AC
:1022700003F57C5300F0004003F1FF032DE9804992
:102280004FEA154B09B44FEA144325EA0B4E24EAF2
:1022900003480FF2042606EB132749083E785FEA4D
:1022A000320203FB0667C7F5000707FB06F64FEA95
:1022B00054374FEAD64606F1020607FB066CCCF10E
:1022C000005C4FEA1C472CEA074C07FB06F40CFBAA
:1022D00006F504EB15464FEA961634BF00204FF082
:1022E00000404FEAD13706FB07FC4FEA1C4C0CFBC1
:1022F0000BF7D21B03FB0CF761EB07010CFB0EF78E
:10230000B0EB074072EB17420CFB08F734BFA2EBAF
:102310000742B2EB074261EB17414FEA0C444FEA28
:10232000910706FB07FC4FEA1C4C0CFB0BF7B0EBCC
:10233000C74072EB573203FB0CF734BFA2EBC74226
:10234000B2EBC74261EB57310CFB0EF7B0EBC700A5
:1023500072EB57720CFB08F734BFA2EBC702B2EB6B
:10236000C70261EB5771039F4FEA816141EA921105
:1023700004EBCC044FEAD1374FEA826206FB07FC3C
:1023800042EA90124FEA80604FEA1C4C0CFB0BF7BC
:10239000D21B03FB0CF761EB07010CFB0EF7B0EB54
:1023A000074072EB17420CFB08F734BFA2EB074261
:1023B000B2EB074261EB17414FEA8C554FEA9107A8
:1023C00004EB9C2406FB07FC4FEA1C4C0CFB0BF7B0
:1023D000B0EBC74072EB573203FB0CF734BFA2EBF4
:1023E000C742B2EBC74261EB57310CFB0EF7B0EBC3
:1023F000C70072EB57720CFB08F734BFA2EBC702A1
:10240000B2EBC70261EB577115EB4C254FEA8161C6
:1024100041EA92114FEA82624FEAD13742EA9012C2
:1024200006FB07FC44F100044FEA80604FEA1C4CB5
:102430000CFB0BF7D21B03FB0CF761EB07010CFB4A
:102440000EF7B0EB074072EB17420CFB08F734BFF6
:10245000A2EB0742B2EB074261EB174115EB1C15EB
:102460004FEA813141EA92414FEA823242EA904298
:102470004FEA80304FEA0C7644F1000448EA034307
:102480004EEA0B484FF0000EB2EB080C71EB03075D
:1024900024BF624639464EEB0E0E4FF0000B00187B
:1024A000524149414BEB0B0BB2EB080C71EB0307AC
:1024B0007BF1000B24BF624639464EEB0E0E4FF007
:1024C000000B0018524149414BEB0B0BB2EB080CCF
:1024D00071EB03077BF1000B24BF624639464EEBDC
:1024E0000E0E51EA020718BF46F0010616EB0E76F3
:1024F00055F1000254F1000103D5BDE88901BDE8A2
:102500000088BDE88901BDE80048B619524141EB99
:102510000101A3F10103704780807F7E7D7C7B7A7F
:102520007978777676757473727171706F6E6E6D7F
:102530006C6C6B6A6A696868676666656464636325
:1025400062616160605F5F5E5E5D5D5C5C5B5B5AAB
:102550005A59595858575756565555555454535318
:1025600052525251515050504F4F4F4E4E4D4D4D73
:102570004C4C4C4B4B4B4A4A4A49494948484847BE
:1025800047474746464645454544444444434343FC
:10259000434242424241414146EA0646A3F5705356
:1025A0004FEA164646EA42564FEAD22242EA4152E2
:1025B00010B54FEAD121A3F1010300F02FF820F06C
:1025C000004000F1020C00F0004701EB0050114602
:1025D000BCF5006F40EA070000D210BDBAF1000F51
:1025E0000AD01CB503B44FF004004FF004014FF0C3
:1025F00000000FBCBDE810404FF00001BBF1010F1F
:10260000B9BF04484FF0FF310348002140EA0700FA
:1026100010BD00BFFFFFEF7F0000F07F002B9C4646
:1026200030D477002BD01CB54FEA370703B44FF0F6
:1026300010004FF01001BAF1000F06D0BCF1000FEE
:10264000DCBF40F0080040F008014FF000000FBC74
:10265000BDE810400BF1010BBBF1010F08BF5FEAB1
:10266000170722BF12F1010211F101014FF00041E1
:1026700043F1000300F0004043EA00007047F9D343
:102680005708D0E746EA064613F1400F4FEA1646D0
:102690001FDD13F1200FDFBF16430A460021203350
:1026A0005B42BED0C3F1200746EA064602FA07F7AE
:1026B0004FEA164646EA0706C3F1200722FA03F25C
:1026C00001FA07F721FA03F14FF0000342EA07028B
:1026D000A7E746EA020646EA06464FEA164646EAF3
:1026E0000106BCBF46EA0646360C4FF000034FF029
:1026F00000024FF0000194E72DE9804C9A46934682
:1027000070B491E8380007C831EA400C48BF34EA99
:10271000430C03D5FFF7A4FDFFF780FFF0BCBDE835
:10272000008C2DE9804C9A46934670B491E83800AD
:1027300007C831EA400C48BF34EA430C03D5FFF721
:102740008FFDFFF729FFF0BCBDE8008C2DE9804C20
:102750009A46934670B491E8380007C810F0804F4D
:1027600008BF13F0804F03D100F01AF8FFF756FFAF
:10277000F0BCBDE8008C2DE9804C9A46934670B4BD
:1027800091E8380007C810F0804F08BF13F0804F61
:1027900003D100F005F8FFF7FFFEF0BCBDE8008CA8
:1027A00020F07F4780EA030023F07F4C07EB0C0307
:1027B000A3F57C5300F00040A3F1FE0392F0000F5C
:1027C00000F0B38095F0000F00F077802DE901490B
:1027D0004FEA11404FEA144621EA004800FB06FC8C
:1027E00024EA064708FB06F607FB08F800FB07F794
:1027F00018EB06484CEB164C4FEA124B18EB074807
:102800004FEA15464CEB174022EA0B4E0BFB06FC39
:1028100025EA06470EFB06F607FB0EFE0BFB07F745
:102820001EEB064E4CEB164C4FF000061EEB074E0F
:102830004CEB174B18EB0B0840F1000018EB0E0B9C
:1028400058EB000840F100008F1A4FF000013CBF28
:10285000C943661B14BFB5EB040C00213CBFC94340
:10286000F61B4FEA17444EEA8E0E27EA04454FEA5C
:102870001C4704FB07622CEA074C05FB07F70CFB1F
:1028800005F604FB0CFC16EB074642EB174216EB71
:102890000C4642EB1C421BEB060658EB0202414180
:1028A00046EA9E0601D5BDE80189B619524141EBC1
:1028B0000101A3F10103BDE801894FEA14454FEA84
:1028C000114724EA054621EA074C05FB07F406FBFD
:1028D00007F70CFB06F105FB0CFC11EB074144EB81
:1028E00017444FEA124711EB0C4144EB1C4422EA17
:1028F000074C05FB07F206FB07F70CFB06F605FB8A
:102900000CFC16EB074642EB174216EB0C4642EB6B
:102910001C456A1854F1000148BF7047B61952416E
:1029200041EB0101A3F10103704795F0000F37D08F
:102930004FEA11424FEA144721EA024624EA074CC3
:1029400002FB07F106FB07F70CFB06F402FB0CFC8D
:1029500014EB074441EB17414FEA154714EB0C44C5
:1029600041EB1C4125EA074C02FB07F506FB07F784
:102970000CFB06F602FB0CFC16EB074645EB174575
:1029800016EB0C4645EB1C42121951F1000148BFF1
:102990007047B619524141EB0101A3F101037047A1
:1029A0004FEA14454FEA114724EA054621EA074C4D
:1029B00005FB07F106FB07F70CFB06F24FF00006DC
:1029C00005FB0CFC12EB074241EB174112EB0C42EA
:1029D00051EB1C4148BF7047921841EB0101A3F134
:1029E0000103704700BFFEE710B50024F4E00020AB
:1029F000C4EBC401804A22F82100C4EBC40102EBFD
:102A000081014880C4EBC40102EB81018880C4EBE2
:102A1000C40102EB8101C8809FED780AC4EBC400B9
:102A2000114601EB800080ED020A0020C4EBC401D6
:102A300002EB81018881C4EBC40102EB8101C881F2
:102A4000C4EBC40102EB81010882C4EBC40102EBB8
:102A5000810188820021C4EBC40002EB8000C182A6
:102A60000020C4EBC40102EB81018861B2EE0E0AC2
:102A700004EB440000EBC400614901EB800080EDF1
:102A8000030A9FED600A04EB440000EBC40001EB75
:102A9000800080ED040AB1EE000A04EB440000EB74
:102AA000C40001EB800080ED050A9FED570A04EB9E
:102AB000440000EBC40001EB800080ED090A9FEDAB
:102AC000530A04EB440000EBC40001EB800080EDEE
:102AD0000A0A04EB440101EBC401494A02EB8100FC
:102AE00007F03EFCB2EE0E0A04EB440000EBC4001B
:102AF000474901EB800080ED030A9FED460A04EB95
:102B0000440000EBC40001EB800080ED040AB1EE4C
:102B1000000A04EB440000EBC40001EB800080EDF0
:102B2000050A9FED390A04EB440000EBC40001EBF9
:102B3000800080ED090A9FED350A04EB440000EBAC
:102B4000C40001EB800080ED0A0A04EB440101EBB4
:102B5000C4012F4A02EB810007F002FCB2EE0E0A1C
:102B600004EB440000EBC4002B4901EB800080ED36
:102B7000030A9FED240A04EB440000EBC40001EBC0
:102B8000800080ED040AB0EE000A04EB440000EB84
:102B9000C40001EB800080ED050A9FED1B0A04EBE9
:102BA000440000EBC40001EB800080ED090A9FEDBA
:102BB000170A04EB440000EBC40001EB800080ED39
:102BC0000A0A04EB440101EBC401134A02EB810041
:102BD00007F0C6FB601CC4B2042CFFF608AF00204F
:102BE00004E000210D4A1154411CC8B21028F8DB42
:102BF0000A4807F069FF10BDC0060024000000006D
:102C0000A0080024CDCCCC3D00007A4500007AC558
:102C1000F0070024CDCCCC3E400700243007002430
:102C200070B590B000250026FE48B0F9060000EB14
:102C30004000400000EE100AB8EEC00AFA4880EDED
:102C4000000AF848B0F90400404200EB40004000A0
:102C500000EE100AB8EEC00AF44880ED000AF14810
:102C6000B0F90800404200EB4000400000EE100ABE
:102C7000B8EEC00AEE4880ED000AEA48B0F9040058
:102C800010F1320F1CDDE748B0F90400322817DAE2
:102C9000E448B0F9060010F1320F11DDE148B0F957
:102CA000060032280CDADF48B0F9080010F1320FC4
:102CB00006DDDC48B0F90800322801DA012000E026
:102CC0000020DC490870DC4B0FCB0CAC0FC4DA4B96
:102CD0001033D3E90020D3E9021309AC0BC40892E6
:102CE00000200EE00021C0EBC002D44B03EB8202B7
:102CF00091820022C0EBC00103EB8101CA82411C1A
:102D0000C8B20428EEDBC748807A01287ED10024AF
:102D1000F7E0C8480078B0B104EB440101EBC4010E
:102D2000C74A02EB810007F01BFB9FEDC60AC648AD
:102D300000EB840080ED000A9FEDC20A04A800EBBE
:102D4000840080ED000A08A800EB8400D0ED000AA2
:102D5000B54890ED000AB64890ED001A01EE600A01
:102D6000BDEEC00AB8EEC00AB84880ED000A0CA853
:102D700000EB8400D0ED000AAC4890ED000AAC48AE
:102D800090ED001A01EE200ABDEEC00AB8EEC00AAE
:102D9000AF4880ED000AAD48D0ED000A60EEA00A11
:102DA000AB4890ED001AD0ED001A41EE210AB0EECA
:102DB000600A09F0F1FBA74850F8240000EE900AE1
:102DC000F8EEE00A20EE200A04A800EB840080ED73
:102DD000000A9E48D0ED000A9D4890ED000A09F0D7
:102DE00065FADFED9D0A20EE200A684600EB8400BC
:102DF00080ED000AC4EBC400904901EB800090ED27
:102E0000020A964880ED000A684600E05CE100EBAB
:102E1000840090ED000A9148D0ED000A30EE600A7F
:102E20008F4880ED000A08E08D4890ED000ADFED44
:102E30008D0A30EE600A80ED000A894890ED000AA4
:102E4000DFED890AB4EEE00AF1EE10FAECDC08E0FE
:102E5000834890ED000ADFED830A30EE200A80ED12
:102E6000000A7F4890ED000ADFED800AB4EEE00A28
:102E7000F1EE10FAECD390ED000ADFED7D0AB4EE2E
:102E8000E00AF1EE10FA14DD90ED000ADFED760AAB
:102E900030EE600A80ED000A04A800EB840090ED9B
:102EA000000AB1EE400A04A800EB840080ED000A9D
:102EB0001DE06B4890ED000ADFED6E0AB4EEE00A0B
:102EC000F1EE10FA13D290ED000ADFED670A30EE52
:102ED000200A80ED000A04A800EB840090ED000AAF
:102EE000B1EE400A04A800EB840080ED000A5C48C3
:102EF00090ED000A544800EB840080ED000A601C4D
:102F0000C4B2042CFFF605AF002440E004A800EB97
:102F1000840090ED000A04EB440000EBC400484933
:102F200001EB800080ED000AC4EBC400434901EBD3
:102F30008000B0F9020000EE100AB8EEC00A04EBFF
:102F4000440000EBC4003E4901EB800080ED010A23
:102F500004EB440101EBC401394A02EB810007F0A4
:102F60001BFA04EB440000EBC400354901EB800080
:102F700090ED020ABDEEC00A10EE100A00B2C4EBDA
:102F8000C4012E4A02EB81018882601CC4B2042C69
:102F9000BCDB002495E02C4800EB840090ED000A97
:102FA00004EB440000EBC400334901EB800080EDEA
:102FB000000A9FED240A04EB440000EBC40001EB7F
:102FC000800080ED010A04EB440101EBC4012A4AB0
:102FD00002EB810007F0E0F904EB440000EBC400D1
:102FE000254901EB800090ED020A04EB440000EB60
:102FF000C400224901EB800080ED000AC4EBC4004C
:103000000E4901EB8000B0F90C0000EE100AB8EE9A
:10301000C00A04EB440000EBC400184901EB800037
:103020002EE00000A0060024380000243C0000240C
:10303000400000245C000024A4CA0008C00600244C
:10304000A0080024000000005009002444000024CF
:10305000480000244C000024E12E6542300000248A
:10306000340000240000B44300003443000034C3A3
:103070000000B4420000B4C240070024F00700245E
:1030800080ED010A04EB440101EBC4017D4A02EB2F
:10309000810007F081F904EB440000EBC40079499A
:1030A00001EB800090ED020ABDEEC00A10EE100A9E
:1030B00001B2C4EBC400744A02EB8000C182601C00
:1030C000C4B2042CFFF667AF7048807A01287DD027
:1030D000002496E004EB440101EBC4016C4A02EBCE
:1030E000810007F03DF91FED290A04EB440000EBD5
:1030F000C400674901EB800080ED000AC4EBC40006
:10310000614901EB8000B0F9020000EE100AB8EE50
:10311000C00A04EB440000EBC4005D4901EB8000F1
:1031200080ED010A04EB440101EBC401584A02EBB3
:10313000810007F031F904EB440000EBC40054496E
:1031400001EB800090ED020ABDEEC00A10EE100AFD
:1031500000B2C4EBC4014C4A02EB8101888204EB4B
:10316000440101EBC4014B4A02EB810007F0F8F87F
:1031700004EB440101EBC401424A02EB810007F079
:10318000EFF81FED500A04EB440000EBC4003D498A
:1031900001EB800080ED000AC4EBC4003A4901EB6A
:1031A0008000B0F90C0000EE100AB8EEC00A04EB83
:1031B000440000EBC400334901EB800080ED010ABC
:1031C00004EB440101EBC4012E4A00E01CE002EBD9
:1031D000810007F0E1F804EB440000EBC40029494A
:1031E00001EB800090ED020ABDEEC00A10EE100A5D
:1031F00001B2C4EBC400244A02EB8000C182601C0F
:10320000C4B2042CFFF666AF002004E00021224A7D
:103210001154411CC8B21028F8DB00202AE0C0EB92
:10322000C001194A02EB8101898AC1F307211A4BB7
:1032300003F81010C0EBC00102EB8101898ACAB209
:103240004100491C5A54C0EBC0010F4A02EB8101F6
:10325000C98AC1F30722410008315A54C0EBC001AA
:10326000094A02EB8101C98ACAB2410009315A54A4
:10327000411CC8B20428D2DB074807F025FC10B077
:1032800070BD0000F0070024C0060024A006002442
:10329000A0080024400700243007002410B502488D
:1032A00001F0FCF910BD00002C0400240146374A4F
:1032B0000868904249D0354A18320868904244D094
:1032C000324A3032086890423FD0304A483208686B
:1032D00090423AD02D4A60320868904235D02B4A4D
:1032E00078320868904230D0284A9032086890427C
:1032F0002BD0264AA8320868904226D0244A086873
:10330000904222D0224A1832086890421DD0204AAA
:1033100030320868904218D01D4A483208689042FE
:1033200013D01B4A6032086890420ED0184A783297
:103330000868904209D0164A90320868904204D03A
:10334000134AA8320868904201D1012000E0002011
:10335000B0B10A78103A1823B2FBF3F000F007027C
:103360000C4B9A5CCA65032805D90A686FF30902F9
:10337000121D8A6503E00A686FF309028A6503E09B
:10338000086820F0FF008865886D704710000240D3
:103390001004024064CA000810B502682B4C036890
:1033A000A34222D0294C14340368A3421DD0274CD9
:1033B00028340368A34218D0244C3C340368A34249
:1033C00013D0224C50340368A3420ED01F4C6434F7
:1033D0000368A34209D01D4C78340368A34204D08B
:1033E0001A4C8C340368A34201D1012300E000236E
:1033F0008BB10378083B1424B3FBF4F1144B03EBBB
:1034000081030366124B8033436601F01F040123DE
:10341000A340836618E00378103B1824B3FBF4F153
:103420000C4B9A4204D80B4BA83B9A4200D308316C
:10343000094B03EB81030366074B8033436601F0BE
:103440001F040123A340836610BD000008540258E6
:1034500000580258B8040240000802400179A9B39C
:10346000082940D8204B02689A4222D01E4B1433C0
:1034700002689A421DD01C4B283302689A4218D029
:10348000194B3C3302689A4213D0174B50330268F1
:103490009A420ED0144B643302689A4209D0124B00
:1034A000783302689A4204D00F4B8C3302689A42F8
:1034B00001D1012200E000224AB14A1E0B4B03EB6E
:1034C0008202C266094A4032026708E00BE04A1EE7
:1034D000074B03EB8202C266054A403202674A1E6E
:1034E000012393404367704708540258005902581B
:1034F00000090240014600208A69D2B98A6A32B1C5
:10350000012A0DD0022A03D0032A10D10EE000BFF9
:10351000CA6A02F08072B2F1807F00D1012007E018
:10352000CA6AB2F1C07F00D1012001E000E000BF13
:1035300036E08A69B2F5005F1BD18A6A32B1012A8E
:1035400007D0022A03D0032A11D10AE000BF0120CC
:103550000EE0CA6A02F08072B2F1807F00D10120D1
:1035600006E0CA6AB2F1C07F00D1012000E000BFCE
:1035700016E08A6A32B1012A05D0022A04D0032A51
:103580000CD103E000BF00BF012008E0CA6A02F0CE
:103590008072B2F1807F00D1012000E000BF00BF47
:1035A00070470000F0B5856D846D984F0668BE4287
:1035B00070D0964F18370668BE426BD0934F3037A5
:1035C0000668BE4266D0914F48370668BE4261D059
:1035D0008E4F60370668BE425CD08C4F78370668E5
:1035E000BE4257D0894F90370668BE4252D0874FAF
:1035F000A8370668BE424DD0854F0668BE4249D006
:10360000834F18370668BE4244D0814F3037066872
:10361000BE423FD07E4F48370668BE423AD07C4F0C
:1036200060370668BE4235D0794F78370668BE42AB
:1036300030D0774F90370668BE422BD0744FA837F2
:103640000668BE4226D0734F0668BE4222D0714F34
:1036500014370668BE421DD06E4F28370668BE423A
:1036600018D06C4F3C370668BE4213D0694F5037B4
:103670000668BE420ED0674F64370668BE4209D066
:10368000644F78370668BE4204D0624F8C370668B4
:10369000BE4201D1012600E000263EB1D0E91976F4
:1036A0007E60C66E16B1D0E91C767E60574F066804
:1036B000BE4249D0554F18370668BE4244D0534FDA
:1036C00030370668BE423FD0504F48370668BE428A
:1036D0003AD04E4F60370668BE4235D04B4F7837F0
:1036E0000668BE4230D0494F90370668BE422BD0A4
:1036F000464FA8370668BE4226D0454F0668BE42F0
:1037000022D0434F18370668BE421DD0404F303795
:103710000668BE4218D03E4F48370668BE4213D0F6
:103720003B4F60370668BE420ED0394F7837066887
:10373000BE4209D0364F90370668BE4204D0344F9F
:10374000A8370668BE4201D1012600E00026DEB19E
:1037500090F85C6006F01F073F26BE40AE6006682A
:10376000366826F4802607683E60066873608668BF
:10377000402E04D10668B2600668F16044E0066835
:10378000B1600668F2603FE0224F0668BE4222D078
:10379000204F14370668BE421DD01E4F28370668DA
:1037A000BE4218D01B4F3C370668BE4213D0194F9B
:1037B00050370668BE420ED0164F64370668BE42C8
:1037C00009D0144F78370668BE4204D0114F8C37A9
:1037D0000668BE4201D1012600E00026A6B190F89D
:1037E0005C6006F01F070126BE40666006687360D5
:1037F0008668402E04D10668B2600668F16003E076
:103800000668B1600668F260F0BD0000100002407A
:103810001004024008540258704772B600BFFEE719
:103820000748006840F002000549086000BF0448EE
:103830000838006800F400500028F8D070470000F5
:103840000C48025810B5024802F064FB10BD00009D
:103850006000002410B5024802F05CFB10BD0000BF
:103860006000002410B5024802F054FB10BD0000B7
:103870000001002410B5024802F04CFB10BD00000E
:103880000001002410B5024802F044FB10BD000006
:10389000A001002410B5024802F03CFB10BD00005E
:1038A000A001002410B501464A6B0868D0F88400D6
:1038B0004FF6FC74A04340EA82000C68C4F8840010
:1038C0000868D0F8840020F47F04088F44EA0040A0
:1038D0000C68C4F88400886B02440868D0F888003B
:1038E0004FF6FC74A04340EA82000C68C4F88800DC
:1038F0000868D0F8880020F4FE04888F44EA00406D
:103900000C68C4F88800C86B02EB40020868D0F865
:10391000A0004FF6FC74A04340EA82000C68C4F893
:10392000A0000868D0F8A00020F4FE044020405A0F
:1039300044EA00400C68C4F8A000D1E9104004FB40
:1039400000220868D0F8B0004FF6FC74A04340EAAB
:1039500082000C68C4F8B0000868D0F8B00020F409
:10396000FE04B1F8480044EA00400C68C4F8B00016
:10397000D1E9124004FB00220868D0F8AC004FF6F1
:10398000FC74A04340EA82000C68C4F8AC00D1E9A2
:10399000144004FB00220868D0F8F0004FF6FC74D5
:1039A000A04340EA82000C68C4F8F0000868D0F830
:1039B000F00020F47C14B1F8580044EA00400C6890
:1039C000C4F8F000886D02EB40020868D0F8C0002F
:1039D0004FF6FC74A04340EA82000C68C4F8C000B3
:1039E0000868D0F8C00020F47C14B1F85C0044EA08
:1039F00000400C68C4F8C0000868D0F8C00020F08F
:103A00007C5491F8600044EA00600C68C4F8C0007F
:103A10002A4C486B04EB8000C866CC6E886B04EBC4
:103A200080040C670C6FC86B04EBC0044C67D1E9D1
:103A3000100460434C6F04EB80048C67D1E91204DE
:103A400060438C6F04EB8004CC67D1E914046043BD
:103A5000CC6F04EB8004802044504458886D04EB04
:103A6000C004842044508C6EC86D60438424645824
:103A700004EB8004882044508C6E086E60438824D8
:103A8000645804EB80049020445040580C4CA042F1
:103A900009D99831486840F020004860032001F8B7
:103AA0009809012010BDCB6E02E0002018601B1D9C
:103AB000902040589842F8D80020F3E700AC00402E
:103AC000FCD300402DE9F041054614461E46D1F8CE
:103AD00004C0BCF1000F0AD1D1F810C0D1F80880A1
:103AE0004CEA080CB1F800804CEA88430BE0D1F8AE
:103AF00010C04CF0804CD1F808804CEA080CD1F88A
:103B000000804CEA080391F82080D1F81CC04CEAF0
:103B1000086CD1F818804CEA080CD1F814804CEAF3
:103B2000080CB1F80C804CEA0847D5F868C00CFBCB
:103B300006FCD5F8848008EB8C021360121D176018
:103B4000121D002019E000F1030C14F80CC04FEA1C
:103B50000C6800F1020C14F80CC048EA0C4800F1A3
:103B6000010C14F80CC048EA0C2C14F800804CEA44
:103B7000080CC2F800C0121D001DDFF81480D1F837
:103B80000CC018F80CC08445DDD8BDE8F0810000F9
:103B900008CA000800B589B0002002900190039087
:103BA00040F201700590C01C06900120049001A90C
:103BB0002E4802F04AF82D4802F0DDFE00220121D5
:103BC0002A4801F061FF002002900190012003903B
:103BD00040F2FF200590002006900120049001A9EA
:103BE000234802F032F80120029000200190039057
:103BF0004FF480600590801C06900120049001A97C
:103C00001B4802F022F802200290002001900120BF
:103C100003904FF4826005904FF4A4600690012059
:103C2000049001A9124802F010F8114802F0A3FE16
:103C3000002201210E4801F027FF00200290019090
:103C400001200390000205900020069001200490BE
:103C500001A9084801F0F9FF064802F08CFE002295
:103C60000121044801F010FF09B000BD60000024EC
:103C700000010024A001002400B587B0FFF78AFFEF
:103C8000012042050023CDE90320029305900A207C
:103C9000CDE9003040F2FF6300223C493C4800F08F
:103CA000A6F800204FF40012CDE90202049005901E
:103CB000042000214FF440730A46CDE90010354935
:103CC000354800F094F800204FF40012CDE90202CC
:103CD000049005900120002140F201330A46CDE90D
:103CE00000102C492D4800F082F80020029003902B
:103CF000049005900820002105230A46CDE9001014
:103D00002749284800F073F800200290039004909F
:103D100005900820002140F205130A46CDE9001065
:103D20001F49214800F063F800200290039004909E
:103D300005900420002140F205230A46CDE9001039
:103D400017491A4800F053F800200290039004909D
:103D500005900820002140F205330A46CDE9001005
:103D60000F49134800F043F800200290039004909C
:103D700005900820002140F2FF730A46CDE90010AB
:103D800007490C4800F033F807B000BD600000247C
:103D9000F0040024000100245005002480050024C4
:103DA000A001002440060024B0050024E005002402
:103DB000100600247006002470B504460D4694F8E1
:103DC000280028B92A46211D206801F0F5FE70BDA3
:103DD0002A46211DE36A206801F0AAFE064626B99C
:103DE00094F82810206801F084FF3046EFE72DE9B1
:103DF000F04708AC94E8F010DDF834800160826090
:103E00004360C46005614FF0000AC0F814A08661E9
:103E1000C761C0F820A0C0F824A080F828C0C0F86E
:103E20002C80BDE8F08700002DE9F041044602F047
:103E3000C5FE804614B90120BDE8F08194F8350034
:103E4000022808D08020606500BF002084F834007C
:103E500000BF0120F0E7FE492068884249D0FC49B4
:103E600018312068884244D0F949303120688842AE
:103E70003FD0F7494831206888423AD0F449603150
:103E80002068884235D0F24978312068884230D0A5
:103E9000EF499031206888422BD0ED49A831206845
:103EA000884226D0EB492068884222D0E94918315F
:103EB000206888421DD0E74930312068884218D0F8
:103EC000E44948312068884213D0E24960312068D3
:103ED00088420ED0DF4978312068884209D0DD4918
:103EE00090312068884204D0DA49A831206888429D
:103EF00001D1012000E0002068B12068006820F0B6
:103F00001E00216808602068406920F08000216858
:103F10004861256806E02068006820F00E002168EE
:103F200008602568CA492068884270D0C84918319D
:103F3000206888426BD0C64930312068884266D0FC
:103F4000C34948312068884261D0C1496031206846
:103F500088425CD0BE4978312068884257D0BC493D
:103F600090312068884252D0B949A83120688842EF
:103F70004DD0B8492068884249D0B64918312068E8
:103F8000884244D0B3493031206888423FD0B1499B
:103F90004831206888423AD0AE4960312068884272
:103FA00035D0AC4978312068884230D0A949903169
:103FB000206888422BD0A749A8312068884226D0A3
:103FC000A5492068884222D0A3491431206888423C
:103FD0001DD0A14928312068884218D09E493C3123
:103FE0002068884213D09C495031206888420ED006
:103FF000994964312068884209D09749783120680E
:10400000884204D094498C312068884201D1012033
:1040100000E0002028B1206E006820F48070216E3E
:1040200008608B492068884249D089491831206846
:10403000884244D086493031206888423FD0844944
:104040004831206888423AD08149603120688842EE
:1040500035D07F4978312068884230D07C49903112
:10406000206888422BD07A49A8312068884226D01F
:1040700078492068884222D07649183120688842E1
:104080001DD0744930312068884218D071494831B8
:104090002068884213D06F496031206888420ED072
:1040A0006C4978312068884209D06A49903120688B
:1040B000884204D06749A8312068884206D1206828
:1040C000006820F001002168086005E020680068B1
:1040D00020F001002168086011E002F06FFDA0EB04
:1040E000080005280BD920206065032084F83500DE
:1040F00000BF002084F8340000BF01209CE628683F
:1041000000F001000028E8D151492068884249D0D8
:104110004F4918312068884244D04D4930312068D9
:1041200088423FD04A494831206888423AD04849BD
:1041300060312068884235D045497831206888420E
:1041400030D043499031206888422BD04049A83173
:104150002068884226D03F492068884222D03D49C5
:104160001831206888421DD03A4930312068884291
:1041700018D0384948312068884213D03549603119
:10418000206888420ED0334978312068884209D0AF
:10419000304990312068884204D02E49A8312068E7
:1041A000884201D1012000E0002040B1A66D94F8C2
:1041B0005C0000F01F013F208840B06007E0A76D61
:1041C00094F85C0000F01F010120884078602049CD
:1041D0002068884276D01E4918312068884271D004
:1041E0001B493031206888426CD019494831206819
:1041F000884267D0164960312068884262D01449ED
:104200007831206888425DD0114990312068884219
:1042100058D00F49A8312068884253D00D492068F2
:1042200088424FD00B491831206888424AD009494A
:1042300030312068884245D006494831206888429C
:1042400040D004496031206888423BD0014905E0F4
:1042500010000240100402400854025878312068CF
:1042600088422FD02549206888422BD02349183115
:104270002068884226D022492068884222D02049DE
:104280001431206888421DD01D4928312068884299
:1042900018D01B493C312068884213D0184950314E
:1042A000206888420ED0164964312068884209D0BF
:1042B000134978312068884204D011498C31206834
:1042C000884201D1012000E0002068B1D4E9191032
:1042D0004860E06E40B1E06E006820F48070E16EEE
:1042E0000860D4E91C104860012084F8350000BF44
:1042F000002084F8340000BF00BF9DE5A004024008
:104300000854025870B504460CB9012070BD94F8E9
:104310003500022803D0802060650120F6E7DC49E3
:104320002068884249D0DA4918312068884244D050
:10433000D7493031206888423FD0D549483120687C
:1043400088423AD0D24960312068884235D0D0497D
:1043500078312068884230D0CD4990312068884239
:104360002BD0CB49A8312068884226D0C949206883
:10437000884222D0C7491831206888421DD0C549DB
:1043800030312068884218D0C249483120688842BC
:1043900013D0C0496031206888420ED0BD497831C1
:1043A0002068884209D0BB4990312068884204D0F7
:1043B000B849A8312068884201D1012000E00020DE
:1043C000F0B3042084F83500B149206888424BD00E
:1043D000AF4918312068884246D0AD493031206855
:1043E000884241D0AA494831206888423CD0A84937
:1043F00060312068884237D0A549783120688842EA
:1044000032D0A3499031206888422DD0A049A831EC
:104410002068884228D09F492068884224D09D493E
:104420001831206888421FD09A493031206888426C
:104430001AD0984948312068884215D0954900E043
:1044400020E06031206888420ED09249783120689F
:10445000884209D08F4990312068884204D08D4924
:10446000A8312068884206D12068006820F0010049
:104470002168086009E12068006820F001002168D7
:10448000086002E12068006820F00E0021680860E2
:104490007F492068884249D07D4918312068884288
:1044A00044D07B493031206888423FD07849483138
:1044B000206888423AD0764960312068884235D0F9
:1044C000734978312068884230D071499031206832
:1044D00088422BD06E49A8312068884226D06D4989
:1044E0002068884222D06B491831206888421DD04C
:1044F000684930312068884218D0664948312068C0
:10450000884213D063496031206888420ED06149E7
:1045100078312068884209D05E499031206888420D
:1045200004D05C49A8312068884206D12068006820
:1045300020F001002168086005E02068006820F094
:1045400001002168086052492068884270D05049B3
:104550001831206888426BD04D493031206888423C
:1045600066D04B4948312068884261D04849603163
:10457000206888425CD0464978312068884257D00C
:10458000434990312068884252D04149A83120687F
:1045900088424DD03F492068884249D03D49183172
:1045A0002068884244D03B493031206888423FD05F
:1045B00038494831206888423AD03649603120680D
:1045C000884235D0334978312068884230D031492B
:1045D0009031206888422BD02E49A831206888422B
:1045E00026D02D492068884222D02B4914312068DA
:1045F00088421DD0284928312068884218D0264991
:104600003C312068884213D02349503120688842C9
:104610000ED0214964312068884209D01E49783182
:104620002068884204D01C498C312068884201D11E
:10463000012000E00020D8B1206E006820F48070D6
:10464000216E0860A56D94F85C0000F01F01012048
:1046500088406860D4E919104860E06E40B1E06EAF
:10466000006820F48070E16E0860D4E91C10486096
:10467000012084F8350000BF002084F8340000BF1A
:10468000206D10B12046216D884700203EE60000D5
:104690001000024010040240085402582DE9F84F5F
:1046A000044600200090FE4800684FF41651B0FB0D
:1046B000F1FAA66DD4F858803768D8F80090F94917
:1046C0002068884249D0F74918312068884244D090
:1046D000F4493031206888423FD0F249483120689F
:1046E00088423AD0EF4960312068884235D0ED49A0
:1046F00078312068884230D0EA4990312068884279
:104700002BD0E849A8312068884226D0E6492068A5
:10471000884222D0E4491831206888421DD0E249FD
:1047200030312068884218D0DF49483120688842FB
:1047300013D0DD496031206888420ED0DA497831E3
:104740002068884209D0D84990312068884204D036
:10475000D549A8312068884201D1012000E000201D
:1047600000287DD094F85C0000F01F0108208840EC
:104770003840002868D0CB492068884249D0C949D0
:1047800018312068884244D0C649303120688842B8
:104790003FD0C4494831206888423AD0C14960318D
:1047A0002068884235D0BF4978312068884230D0AF
:1047B000BC499031206888422BD0BA49A831206882
:1047C000884226D0B8492068884222D0B64918319C
:1047D000206888421DD0B44930312068884218D002
:1047E000B14948312068884213D0AF496031206810
:1047F00088420ED0AC4978312068884209D0AA4955
:1048000090312068884204D0A749A83120688842A6
:1048100004D12068006800F0040003E0206800680C
:1048200000F0080080B12068006820F004002168D2
:10483000086094F85C0000F01F0108208840B06018
:10484000606D40F00100606594F85C0000F01F01AD
:10485000012088403840E8B392492068884200E04F
:10486000B7E24BD08F4918312068884246D08D4935
:1048700030312068884241D08A49483120688842D6
:104880003CD0884960312068884237D085497831EA
:104890002068884232D083499031206888422DD0E8
:1048A0008049A8312068884228D07F492068884202
:1048B00024D07D491831206888421FD07A49303190
:1048C000206888421AD0784948312068884215D03B
:1048D000754900E026E06031206888420ED07249B8
:1048E00078312068884209D06F4990312068884229
:1048F00004D06D49A8312068884204D120684069FD
:1049000000F0800002E020680068002050B194F8B8
:104910005C0000F01F0101208840B060606D40F035
:104920000200606594F85C0000F01F0104208840DC
:104930003840E8B35B49206888424BD05949183168
:104940002068884246D0574930312068884241D09B
:1049500054494831206888423CD05249603120682F
:10496000884237D04F4978312068884232D04D494B
:104970009031206888422DD04A49A8312068884269
:1049800028D049492068884224D0474918312068F6
:1049900088421FD044493031206888421AD04249A9
:1049A00048312068884215D03F496031206800E0D6
:1049B00024E088420ED03C4978312068884209D0F2
:1049C000394990312068884204D03749A83120689D
:1049D000884204D12068006800F0020002E02068EC
:1049E0000068002050B194F85C0000F01F01042022
:1049F0008840B060606D40F00400606594F85C0031
:104A000000F01F01102088403840E8B32549206895
:104A1000884251D023491831206888424CD021491E
:104A200030312068884247D01E494831206888428A
:104A300042D01C496031206888423DD01949783104
:104A40002068884238D0174990312068884233D096
:104A50001449A831206888422ED013492068884222
:104A60002AD0114918312068884225D00E493031AA
:104A70002068884220D00C494831206888421BD0E9
:104A800009496031206800E04DE0884214D00649B1
:104A90007831206888420FD003499031206805E0C2
:104AA000200000241000024010040240884203D07D
:104AB000FE492068884204D12068006800F00800A0
:104AC00003E02068006800F0040060B394F85C0024
:104AD00000F01F0110208840B0602068006800F4DA
:104AE000802080B12068006800F4002028B9206C84
:104AF000C8B12046216C884715E0A06C98B12046CB
:104B0000A16C88470FE02068006800F4807028B925
:104B10002068006820F0080021680860206C10B14F
:104B20002046216C884794F85C0000F01F0120208B
:104B30008840384000287DD0DD492068884249D02F
:104B4000DB4918312068884244D0D9493031206887
:104B500088423FD0D6494831206888423AD0D4496B
:104B600060312068884235D0D14978312068884248
:104B700030D0CF499031206888422BD0CC49A83121
:104B80002068884226D0C949A8392068884221D0A7
:104B9000C6499039206888421CD0C44978392068B9
:104BA000884217D0C14960392068884212D0BF4975
:104BB0004839206888420DD0BC4930392068884285
:104BC00008D0BA4918392068884203D0B74920680C
:104BD000884204D12068006800F0100003E02068DB
:104BE000006800F0020028B394F85C0000F01F0198
:104BF00020208840B06094F8350004282DD120682A
:104C0000006820F01600216808602068406920F0E4
:104C1000800021684861206C08B9A06C28B1206828
:104C2000006820F008002168086094F85C0000F03B
:104C30001F0100E03FE03F208840B060012084F881
:104C4000350000BF002084F8340000BF206D10B193
:104C50002046216D8847BDE8F88F2068006800F481
:104C6000802080B12068006800F4002028B9606CC2
:104C700008B32046616C88471DE0E06BD8B1204640
:104C8000E16B884717E02068006800F4807068B91D
:104C90002068006820F0100021680860012084F876
:104CA000350000BF002084F8340000BFE06B10B175
:104CB0002046E16B8847606D00287AD0606D00F077
:104CC0000100E8B3042084F835007949206888425F
:104CD0004BD0774918312068884246D0744930312A
:104CE0002068884241D072494831206888423CD0CF
:104CF0006F4960312068884237D06D49783120682B
:104D0000884232D06A499031206888422DD0684963
:104D1000A8312068884228D06449A8392068884290
:104D200023D062499039206888421ED05F49783983
:104D30002068884219D05D4960392068884200E0C7
:104D400040E012D059494839206888420DD057496F
:104D500030392068884208D0544918392068884280
:104D600003D052492068884206D12068006820F0AC
:104D700001002168086005E02068006820F001005B
:104D80002168086000BF0098401C0090504500D981
:104D900005E02068006800F001000028F3D100BFA2
:104DA0002068006800F0010020B1032084F835007D
:104DB00003E00DE0012084F8350000BF002084F8F6
:104DC000340000BFE06C002802D02046E16C884728
:104DD000D9E138492068884222D036491431206808
:104DE00088421DD0334928312068884218D0314983
:104DF0003C312068884213D02E49503120688842C7
:104E00000ED02C4964312068884209D02949783174
:104E10002068884204D027498C312068884201D11B
:104E2000012000E000200028D2D02068056894F816
:104E30005C0000F01F010420884000EA0900D8B39C
:104E400005F00400C0B394F85C0000F01F010420DA
:104E50008840C8F8040005F4004080B105F48030B3
:104E600030B9A06C0028B3D02046A16C88478AE1F5
:104E7000206C0028ACD02046216C884783E105F0E7
:104E80002000E8BB0A492068884253D008491831FD
:104E9000206888424ED0064930312068884249D087
:104EA000034948312068884244D006E0B8040240F3
:104EB00010000240085402584FE0B44960312068A5
:104EC000884237D0B14978312068884232D0AF4922
:104ED0009031206888422DD0AC49A83120688842A2
:104EE00028D0AB492068884224D0A94918312068CD
:104EF00088421FD0A6493031206888421AD000E08D
:104F000025E0A34948312068884213D0A049603188
:104F1000206888420ED09E4978312068884209D0A6
:104F20009B4990312068884204D09949A831206873
:104F3000884206D12068006820F0080021680860D7
:104F400005E02068006820F0040021680860206CFB
:104F500010B32046216C884715E194F85C0000F0FE
:104F60001F010220884000EA0900E8B305F00200B2
:104F7000D0B394F85C0000F01F0102208840C8F80C
:104F8000040005F4004070B105F4803028B9606C6D
:104F900010B12046616C8847F5E0E06BF0B3204625
:104FA000E16B8847EFE005F02000C0BB774920683F
:104FB00088424ED0754918312068884249D07349DB
:104FC00030312068884244D0704948312068884296
:104FD0003FD06E496031206888423AD06B497831C1
:104FE0002068884235D000E04EE068499031206862
:104FF00088422ED06549A8312068884229D064496A
:105000002068884225D0624918312068884220D023
:105010005F493031206888421BD001E06EE02DE00E
:105020005B4948312068884213D059496031206873
:1050300088420ED0564978312068884209D05449B8
:1050400090312068884204D05149A83120688842B4
:1050500006D12068006820F014002168086005E08F
:105060002068006820F00A0021680860012084F8A8
:10507000350000BF002084F8340000BFE06BE8B3C7
:105080002046E16B88477EE094F85C0000F01F0149
:105090000820884000EA090080B305F0080068B3E2
:1050A0003A49206888424BD03849183120688842F4
:1050B00046D0364930312068884241D033494831A2
:1050C000206888423CD0314960312068884237D01E
:1050D0002E4978312068884232D02C49903120689E
:1050E00088422DD02949A8312068884228D02849F3
:1050F0002068884224D02649183100E043E0206827
:1051000088421DD0224930312068884218D0204979
:1051100048312068884213D01D4960312068884298
:105120000ED01B4978312068884209D01849903147
:105130002068884204D01649A8312068884206D1E8
:105140002068006820F01C002168086005E02068E5
:10515000006820F00E002168086094F85C0000F000
:105160001F0101208840C8F804000120606584F810
:10517000350000BF002084F8340000BFE06C10B19F
:105180002046E16C884700BF65E500001000024042
:10519000100402402DE9F041044601F00FFD804665
:1051A00014B90120BDE8F081FE492068884249D049
:1051B000FC4918312068884244D0FA4930312068CF
:1051C00088423FD0F7494831206888423AD0F549B3
:1051D00060312068884235D0F249783120688842B1
:1051E00030D0F0499031206888422BD0ED49A83169
:1051F0002068884226D0EC492068884222D0EA49BB
:105200001831206888421DD0E74930312068884233
:1052100018D0E54948312068884213D0E24960310E
:10522000206888420ED0E04978312068884209D051
:10523000DD4990312068884204D0DB49A8312068DC
:10524000884201D1012000E00020002873D0606A6C
:1052500000B100BF022084F8350000BF002084F8B0
:10526000340000BFCF492068884249D0CD49183169
:105270002068884244D0CB493031206888423FD0F2
:10528000C8494831206888423AD0C6496031206810
:10529000884235D0C34978312068884230D0C1492E
:1052A0009031206888422BD0BE49A83120688842BE
:1052B00026D0BD492068884222D0BB4918312068D9
:1052C00088421DD0B84930312068884218D0B6498C
:1052D00048312068884213D0B34960312068884241
:1052E0000ED0B14978312068884209D0AE4990315A
:1052F0002068884204D0AC49A8312068884206D191
:105300002068006820F001002168086005E020683E
:10531000006820F00100216808600DE001F04EFCFB
:10532000A0EB0800052807D920206065032084F839
:105330003500012036E769E02068006800F00100D0
:105340000028EBD12068056898480540D4E902019F
:1053500008432169084361690843A1690843E16979
:105360000843216A08430543606A042803D1D4E94D
:105370000B01084305436068292802D360682E2882
:1053800017D960683F2802D36068422811D9606845
:10539000472802D3606848280BD960684F2802D399
:1053A0006068522805D96068742804D3606877283B
:1053B00001D8012000E0002008B145F480152068E4
:1053C00005602068456925F00705606A0543606A45
:1053D00004280DD1A06A0543E06A48B12046FEF7D3
:1053E00089F828B140206065012084F83500D9E6AD
:1053F000206845612046FDF759FF064694F85C0099
:1054000000F01F013F208840B0609EE0684920689E
:10541000884222D066491431206888421DD06449F0
:1054200028312068884218D061493C312068884280
:1054300013D05F495031206888420ED05C496431F6
:105440002068884209D05A4978312068884204D0BF
:1054500057498C312068884201D1012000E00020AA
:10546000E0B353492068884222D051491431206862
:1054700088421DD04E4928312068884218D04C49B6
:105480003C312068884213D0494950312068884215
:105490000ED0474964312068884209D044497831A8
:1054A0002068884204D042498C312068884201D16A
:1054B000012000E0002000B100BF022084F8350088
:1054C00000BF002084F8340000BF20680568394818
:1054D0000540A068402802D1102106E02EE0A06817
:1054E000802801D1C10100E00021E06841EAD0013B
:1054F000206941EAD001606941EAD001A06941EA2E
:10550000D001E06941EAD001206A41EA1010054368
:105510002068056026492068401A1421B0FBF1F08C
:105520008000E0652046FDF7C1FE074694F85C0068
:1055300000F01F0101208840786006E0402060658F
:10554000032084F8350001202CE6164920688842A3
:105550007AD0144918312068884275D01149303109
:105560002068884270D00F494831206888426BD04B
:105570000C4960312068884266D00A497831206839
:10558000884261D007499031206888425CD0054943
:10559000A8312068884257D003492068884253D0F8
:1055A000014909E010000240100402403F8010FE53
:1055B000085402580F00FEFF18312068884243D07B
:1055C0003749206888423FD03549183120688842E1
:1055D0003AD0334930312068884235D0304948319B
:1055E0002068884230D02E496031206888422BD014
:1055F0002B4978312068884226D02A492068884281
:1056000022D028491431206888421DD025492831EC
:105610002068884218D023493C312068884213D042
:1056200020495031206888420ED01E4964312068DC
:10563000884209D01B4978312068884204D0194932
:105640008C312068884201D1012000E0002000B3A5
:105650002046FDF7A1FEA068802801D100206060EF
:105660002079216E0860D4E919104860606860B143
:105670006068082809D82046FDF7F0FE0020E16E9A
:105680000860D4E91C10486003E00020E066206751
:10569000606700206065012084F83500002081E506
:1056A00040040240085402582DE9F04104460D46DA
:1056B00016461F464FF0000814B90120BDE8F081DE
:1056C00000BF94F83400012801D10220F6E7012040
:1056D00084F8340000BF94F8350001287ED1022000
:1056E00084F8350000206065E4492068884249D08C
:1056F000E24918312068884244D0E04930312068BE
:1057000088423FD0DD494831206888423AD0DB49A1
:1057100060312068884235D0D84978312068884285
:1057200030D0D6499031206888422BD0D349A83157
:105730002068884226D0D2492068884222D0D049A9
:105740001831206888421DD0CD4930312068884208
:1057500018D0CB4948312068884213D0C8496031FD
:10576000206888420ED0C64978312068884209D026
:10577000C34990312068884204D0C149A8312068CB
:10578000884206D12068006820F001002168086086
:1057900005E02068006820F00100216808603B46B1
:1057A000324629462046FDF7FDFEB449206888426E
:1057B0004BD0B24918312068884246D0AF493031C9
:1057C0002068884241D0AD494831206888423CD0A9
:1057D000AA4960312068884237D000E042E1A749F9
:1057E00078312068884230D0A449903120688842BE
:1057F0002BD0A249A8312068884226D0A049206831
:10580000884222D09E491831206888421DD09C4988
:1058100030312068884218D0994948312068884240
:1058200013D097496031206888420ED0944978316E
:105830002068884209D0924990312068884204D07B
:105840008F49A8312068884201D1012000E0002062
:1058500080B12068006820F01E0040F0160021682A
:105860000860206CB0B12068006840F00800216832
:1058700008600FE02068006820F00E0040F00A0089
:1058800021680860206C28B12068006840F004009E
:105890002168086079492068884270D077491831BA
:1058A000206888426BD0754930312068884266D0C4
:1058B000724948312068884261D07049603120685F
:1058C00088425CD06D4978312068884257D06B4956
:1058D00090312068884252D06849A83120688842B7
:1058E0004DD067492068884249D065491831206801
:1058F000884244D062493031206888423FD06049B4
:105900004831206888423AD05D4960312068884239
:1059100035D05B4978312068884230D05849903181
:10592000206888422BD05649A8312068884226D06A
:1059300054492068884222D0524914312068884254
:105940001DD0504928312068884218D04D493C313B
:105950002068884213D04B495031206888420ED0CD
:10596000484964312068884209D046497831206826
:10597000884204D043498C312068884201D10120FB
:1059800000E0002090B1206E006800F4803028B163
:10599000206E006840F48070216E0860E06E28B1CF
:1059A000E06E006840F48070E16E08603349206862
:1059B000884249D0314918312068884244D02F4963
:1059C0003031206888423FD02C49483120688842D5
:1059D0003AD02A4960312068884235D02749783149
:1059E0002068884230D025499031206888422BD0E9
:1059F0002249A8312068884226D02149206888425F
:105A000022D01F491831206888421DD01C493031EE
:105A10002068884218D01A4948312068884213D03B
:105A200017496031206888420ED0154978312068C6
:105A3000884209D0124990312068884204D0104928
:105A4000A8312068884206D12068006840F0010033
:105A50002168086010E02068006840F001002168BB
:105A6000086009E04FF40060606500BF002084F822
:105A7000340000BF4FF0010840461FE6100002400E
:105A8000100402400854025830B5034693F8984079
:105A9000012C01D0022C3ED11868806D084030B92D
:105AA0001868C06D40F001001D68E8650EE01868D8
:105AB000806D0840884206D11868C06D40F0020031
:105AC0001D68E86502E003201D68E86501F40070C8
:105AD00030B11868D0F8E00010431D68C5F8E00048
